:0A0000000C945B050C9400000C94B6
:10000A0000000C9400000C9400000C9400000C9466
:10001A0000000C9400000C943D060C9400000C9413
:10002A0000000C9400000C9400000C9400000C9446
:10003A0091180C9480180C947B180C9400000C9462
:10004A0000000C9400000C9400000C9400000C9426
:10005A0000000C9400000C9400000C9400000C9416
:10006A0000000C9400000C9400000C9400000C9406
:10007A0000000C9400000C9400000C9400000C94F6
:10008A0000001027E80364000A00010000100001C4
:10009A001000010011306368756E67003137322E27
:1000AA0032302E31302E323030393432343637361F
:1000BA0038343039343234363736383450686F6E23
:1000CA0067204C61622054544244FFFF0100000043
:1000DA0000000000000000006B686F692074616F07
:1000EA002073696D2E2E2E00415400415445300074
:1000FA0041542B4950523D3936303000415426572D
:10010A0000415458340041542B435343533D224732
:10011A00534D220041542B434D47463D3100415433
:10012A002B434E4D493D322C312C302C302C300093
:10013A0041542B435341530041542B434E4D493DA7
:10014A00322C32004154443B257325632563004118
:10015A00542B434D47533D2563257325632563255A
:10016A00630025732025632563006368756E670045
:10017A004443313A253264256325647620202025BC
:10018A0031642531643A2531642531643A25316474
:10019A00253164004443323A253264256325647666
:1001AA002020202531642531642F253164253164CE
:1001BA002F253264004F4646004F4E0048756D6940
:1001CA003A253264256325642525202020414331C0
:1001DA003A2533730054656D703A253264256325D8
:1001EA006425634320204143323A253373004D6F1F
:1001FA0064650074696D653A2020202025316425E4
:10020A0031643A25316425316400646174653A20A9
:10021A002020202531642531642F2531642531645D
:10022A002F2532640068756D693A202531642531BD
:10023A006420746F20253164253164252500746596
:10024A006D703A2025316425316420746F20253180
:10025A00642531642563430021767569206C6F6ECD
:10026A0067206E686170206C61692067696F210080
:10027A006C7575207468616E6820636F6E67210003
:10028A006E686170206C6169206E6761792074689C
:10029A00616E67210025732C646F616D5F6C6F77E7
:1002AA002C2564202563256325630025732C646F40
:1002BA00616D5F686967682C25642025632563255D
:1002CA00630021216E686170206C6169206E677518
:1002DA006F6E6721210025732C6E68696574646FDF
:1002EA005F6C6F7765722C2564202563256325630F
:1002FA000025732C6E68696574646F5F6869676846
:10030A002C256420256325632563007365744443A3
:10031A000043616920646174206D75632044430061
:10032A0044435F6C6F775F313A202531642531642D
:10033A002C2531640044435F6C6F775F323A202585
:10034A0031642531642C2531640044435F68696750
:10035A0068203A202531642531642C253164002532
:10036A00732C6469656E61705F6C6F772C25642EDF
:10037A002564004461206C7575206E67756F6E6721
:10038A000044435F6C6F775F313A25642C256456CD
:10039A00004B69656D20747261206C6169206D750E
:1003AA00632044435F6C6F775F31210025732C64AF
:1003BA0069656E61705F6C6F77312C25642E2564D8
:1003CA000044635F6C6F775F323A25642C2564566C
:1003DA00004B69656D20747261206C6169206D75CE
:1003EA00632044635F6C6F775F32210025732C644E
:1003FA0069656E61705F686967682C25642E25647B
:10040A000044635F686967683A25642C256456006E
:10041A004B69656D20747261206C6169206D75632A
:10042A002044635F686967682100736474004361EC
:10043A006920646174205344542063616E682062A9
:10044A00616F00257300536D73203A2030253164A3
:10045A0025316425316425316425316425316425CB
:10046A003164253164253164006461206C7575201E
:10047A0073647420736D733A006B69656D207472CE
:10048A0061206C616920534454210025732C6875DE
:10049A006D69646974792C25642E256400646F2063
:1004AA00616D207472616D202573206869656E2004
:1004BA00746169206C612025642C256420646120A4
:1004CA007665206E67756F6E672062696E68207444
:1004DA0068756F6E67202000646F20616D207472EA
:1004EA00616D202573206869656E20746169206CCE
:1004FA00612025642C2564206F2064756F69206E45
:10050A0067756F6E67202000646F20616D207472BA
:10051A00616D202573206869656E20746169206C9D
:10052A00612025642C2564206F207472656E206E0C
:10053A0067756F6E6720200025732C74656D706572
:10054A007261747572652C25642E2564006E686963
:10055A00657420646F207472616D20257320686948
:10056A00656E20746169206C612025642C256420E5
:10057A0064612074726F207665206E67756F6E678E
:10058A002062696E68207468756F6E672020006E3D
:10059A006869657420646F207472616D2025732008
:1005AA006869656E20746169206C612025642C2558
:1005BA0064206F2064756F6920206E67756F6E679F
:1005CA002020006E6869657420646F207472616D02
:1005DA00202573206869656E20746169206C61202A
:1005EA0025642C2564206F207472656E20206E6746
:1005FA00756F6E6720200025732C6C696768742CF0
:10060A0032006D617420616E682073616E6720002C
:10061A0025732C6C696768742C3100636F20616ED6
:10062A00682073616E67200025732C766F6C746185
:10063A0067655F61632C310063616E682062616F78
:10064A00206D6174206469656E20617020414331B8
:10065A0020746169207472616D2025730025732CE2
:10066A00766F6C746167655F61632C323230006447
:10067A006120636F206469656E2061702041433197
:10068A0020746169207472616D2025730025732CB2
:10069A00766F6C746167655F6163322C3100436108
:1006AA006E682062616F206D6174206469656E20D6
:1006BA0061702041433220746169207472616D2037
:1006CA0025730025732C766F6C746167655F6163AF
:1006DA00322C32323000446120636F206469656EC7
:1006EA002061702041433220746169207472616D07
:1006FA002025730074727579656E20656E7468655D
:10070A00726E65740025732C766F6C746167655F11
:10071A006463312C25642E25640025732C766F6C56
:10072A00746167655F6463322C25642E25640074E6
:10073A00727579656E20786F6E67004469656E2000
:10074A00617020444331206869656E2074616920B4
:10075A006F207472616D202573206C612025642CD2
:10076A00256456207468617020686F6E206D756309
:10077A002025642C256456004469656E206170202A
:10078A00444331206869656E20746169206F207462
:10079A0072616D202573206C612025642C256456B6
:1007AA00206E616D2074726F6E672063616E6820BF
:1007BA0062616F206D756320312074752025642C69
:1007CA002564562064656E2025642C256456200015
:1007DA004469656E20617020444331206869656E02
:1007EA0020746169206F207472616D202573206CFA
:1007FA00612025642C256456206461207665206D6D
:10080A0075632062696E68207468756F6E672074FC
:10081A0075202025642C2564562064656E20256485
:10082A002C256456004469656E206170204443316A
:10083A00206869656E20746169206F207472616D29
:10084A00202573206C612025642C25645620636161
:10085A006F20686F6E206D75632025642C256456A1
:10086A00004469656E2061702044433220686965DE
:10087A006E20746169206F207472616D2025732067
:10088A006C612025642C2564562074686170206888
:10089A006F6E206D75632025642C256456004469AB
:1008AA00656E20617020444332206869656E207449
:1008BA006169206F207472616D202573206C61203C
:1008CA0025642C256456206E616D2074726F6E67E4
:1008DA002063616E682062616F206D75632031202C
:1008EA0074752025642C2564562064656E20256461
:1008FA002C25645620004469656E206170204443AB
:10090A0032206869656E20746169206F2074726193
:10091A006D202573206C612025642C256456206483
:10092A0061207665206D75632062696E682074683F
:10093A00756F6E67207475202025642C25645620F7
:10094A0064656E2025642C256456004469656E2012
:10095A00617020444332206869656E2074616920A1
:10096A006F207472616D202573206C612025642CC0
:10097A002564562063616F20686F6E206D75632051
:10098A0025642C256456000080C0020002009E00E7
:10099A000500A406A0000C002607A6000A003A07D4
:1009AA00B2000A004507BC000E006A07C600020032
:1009BA004308D40001004508D60010000005E200F3
:1009CA0003001005F20005001305F5000C001805D8
:1009DA00FA00050024050601050029050B0105009A
:1009EA002E0506010E00330510010A0041051E01FD
:1009FA0012004B05280108005D053A010C00650547
:100A0A00420106007105740104007705BF01030065
:100A1A007B05C30104007E05BF0103008205C301F3
:100A2A0005008505F80118008A0562021000A20572
:100A3A007A021500B2058A021000C7057A02100070
:100A4A00D7057A021000E7057A020600F7051503B2
:100A5A001B00FD059B031B001806DB031A00330667
:100A6A001A0404004D0634041200510683040500DA
:100A7A006306F80106006806150304006E063404CE
:100A8A0006007206740104007806340405007C0628
:100A9A00F80106008106150311008706FE060C0000
:100AAA009806390702009A0892090000F894EE277E
:100ABA00ECBBF1E0F5BFE5BFE0936C008DE0A2E08E
:100ACA00BB27ED938A95E9F780E090E1A0E0B1E0D9
:100ADA00ED930197E9F7E4E9F9E08591959100979B
:100AEA0061F0A591B59105901590BF01F0010590AF
:100AFA000D920197E1F7FB01F0CF8BBFEFEFEDBF4E
:100B0A00E0E1EEBFC0E0D5E00C94B418BA93AA9322
:100B1A002A978AE0A0E0B0E0E8EDF0E00E94142A0B
:100B2A000E94062AE0E4E0936100E09362000E94DA
:100B3A00A223E09362000E94A723E0E4E09362000C
:100B4A00E0E0E09361000E94AB23069B08C00E948C
:100B5A00B12324F0C69AE89435F801C0F6CF069975
:100B6A0003C035FE01C0FBCF0E94AB23069B07C022
:100B7A000E94B1231CF0E89435F801C0F7CF06991A
:100B8A0003C035FE01C0FBCF35FE6EC020E030E069
:100B9A002530E0E03E07CCF500E010E00830E0E068
:100BAA001E0784F5069BFECF85E88A95F1F7069B1A
:100BBA000FC00E94B723EA0FFB1F0F010E94B72341
:100BCA00AE0FBF1F0E94A12AEE0FFF1FE1600DC0EA
:100BDA000E94B723EA0FFB1F0F010E94B723AE0F33
:100BEA00BF1FED91FD91EE0FFF1FD001ED93FC9316
:100BFA000E94AB23069B03C00E94B123DCF30F5F64
:100C0A001F4FCCCF2F5F3F4FC3CFE885F985AE8109
:100C1A00BF81EA0FFB1FAA85BB85EA0FFB1FAC85C4
:100C2A00BD85EA0FFB1FAF01EE85FF85E417F507C7
:100C3A0019F0E0E0F0E018C0FA85E0E0AC85BD8587
:100C4A00EA0FFB1FAA89BB89ED93FC93FE81E0E0C2
:100C5A00A885B985EA0FFB1FA889B989ED93FC938A
:100C6A00689435F8E1E0F0E00E940D2A6496089550
:100C7A000A92AA93EA93EFB7EA93A0E023FCA1E0D1
:100C8A000E94BD23A0E024FCA1E00E94C22311F02F
:100C9A00E89424F8E991EFBFE991A9910990189590
:100CAA00AA93E881E7B98BE18A95F1F7369A349BE2
:100CBA00FECF349AE4B1F5B121960895BA93AA9376
:100CCA00E0E0E0934108E09342080E94C723E03045
:100CDA0059F0E0919B00E072E1F30E94C723E09390
:100CEA009C000E94D123F1CF89C00E94D923A0E0A1
:100CFA00B5E00E9450230E94DE23A0E1B5E00E94E5
:100D0A00E223A3E1B5E00E94E223A8E1B5E00E9454
:100D1A00E223A4E2B5E00E94E223A9E2B5E00E9440
:100D2A00E223AEE2B5E00E94E223A3E3B5E00E942B
:100D3A00E223A1E4B5E00E94E223ABE4B5E00E941D
:100D4A00E223ADE5B5E00E94E223A5E6B5E00E9404
:100D5A00C720ADE00E94C020AAE00E94C020ACE2F9
:100D6A00B1E00E94EE230895BA93AA930E94222327
:100D7A000E94F223E9E5F1E0FA93EA930E94FB2349
:100D8A00EA85FB850E9402240E94FB230E94072415
:100D9A000E941424A9E7B7E00E94C7200E94F22308
:100DAA00ECE6F1E0FA93EA93EC81FD810E940224D9
:100DBA000E9407240E941924A9E7B7E00E94C720CD
:100DCA000E941E24AAE10E94C02024960895AA9394
:100DDA00E199FECFE981FA81FFBBEEBBE881EDBB69
:100DEA00E29AE19A23960895BA93AA93E199FECFDB
:100DFA00E881F981FFBBEEBBE09AEDB32296089534
:100E0A00E0E0E0934108E09342080E94222414970C
:100E1A008CF40E9427240E942C2421F40E9430245E
:100E2A00ACE303C00E943024A0E20E9430230E9457
:100E3A00D123EBCF08950E943624E7E6F8E0FA932F
:100E4A00EA93E4E6F8E0FA93EA93E5E6F8E0FA933F
:100E5A00EA93A6E6B8E00E94C5220E943624E1E69B
:100E6A00F8E0FA93EA93E2E6F8E0FA93EA93A3E663
:100E7A00B8E00E949F220E9436240E9436240E94D3
:100E8A003A24A1E7B5E00E948620E03009F030C19B
:100E9A00A0E00E943F240E944424A1E00E943F2433
:100EAA000E944924A2E00E943F240E944E24A3E00B
:100EBA000E943F240E9453240E945824E093680809
:100ECA00F09369080E9460240E9468240E946D249D
:100EDA00E0936E08F0936F080E947524E0937008FF
:100EEA00F09371080E947D24E0937408F0937508CA
:100EFA000E9485240E948D240E949224E0937A08FD
:100F0A00F0937B080E949A240E94A224A09166086A
:100F1A00B0E00E94A724E0938008F0938108A09192
:100F2A006608BB270E94AC24E0938208F0938308EA
:100F3A000E94B124A436E0E0BE0734F0E8E2F0E013
:100F4A000E9444240E94B6240E94BE24A436E0E0F3
:100F5A00BE0734F0E6E4F0E00E9449240E94C3246C
:100F6A000E94CB24A436E0E0BE0734F0E4E1F0E0CE
:100F7A000E944E240E94D0240E94D824A436E0E085
:100F8A00BE0734F0E9E1F0E00E9453240E94DD2418
:100F9A000E94D9230E94E524EAE7F1E0FA93EA9352
:100FAA000E94EA240E94F3240E94FA240E945824F0
:100FBA000E9403250E9460240E9403250E946D243A
:100FCA000E9403250E9475240E940325A0916308AC
:100FDA00B0E00E94A7240E940325A0916308BB27C2
:100FEA000E94AC240E9403250E9408250E94A22385
:100FFA000E941025EEE9F1E0FA93EA930E94152582
:10100A000E94F3240E941A250E947D240E9403252F
:10101A000E9485240E9403250E9492240E9403258F
:10102A000E949A240E940325E0916608FF276627FA
:10103A0077270E94A92A80E20E944A22A4960E9447
:10104A001F250E94A2230E942325B29905C00E944F
:10105A002725A7E7B5E004C00E942725ABE7B5E03E
:10106A000E949A200E94E524E6ECF1E0FA93EA93C2
:10107A000E942C250E94A7240E9403250E94F32483
:10108A000E9431250E940325E2E2F7E00E94022431
:10109A000E943325B39905C00E942725AEE7B5E023
:1010AA0004C00E942725A2E8B5E00E949A200E9467
:1010BA00A2230E943825EFEDF1E0FA93EA930E9409
:1010CA003D250E94A7240E9403250E94F3240E9422
:1010DA0042250E9403250E944425E2E2F7E00E948D
:1010EA0002240E9414240E941F2585E88A95F1F79C
:1010FA000E943A24A5E8B5E00E948620E03009F073
:10110A00A3C70E944B25FF93EF93A0E20E943F24BE
:10111A00AF91BF910E945325FF93EF93A2E20E94E1
:10112A003F24AF91BF910E946125FF93EF93A4E200
:10113A000E943F24AF91BF910E946F2571F00E94D7
:10114A0091250E94AC250E94B8250E94C4250E94C0
:10115A00D0250E94DC25AE2F3ADE52DE0E94D9232A
:10116A000E94E524EDEFF1E0FA93EA93E091680832
:10117A00F09169080E940224E0916A08F0916B08D4
:10118A000E940224E0916E08F0916F080E940224E6
:10119A00E0917008F09171080E9402240E943325A0
:1011AA00E0E00E941025E4E1F2E0FA93EA93E0918C
:1011BA007408F09175080E940224E0917608F09173
:1011CA0077080E940224E0917A08F0917B080E9435
:1011DA000224E0917C08F0917D080E9402240E947A
:1011EA00E8250E94ED250E9402240E9414240E94F0
:1011FA001F25E0E00E9423250E94E524EFE2F2E0A9
:10120A00FA93EA930E94B1240E94A7240E9403251C
:10121A000E94B1240E94AC240E9403250E94BE248D
:10122A000E94A7240E9403250E94BE240E94AC2487
:10123A000E9403250E943325E0E00E943825E8E455
:10124A00F2E0FA93EA930E94CB240E94A7240E9418
:10125A0003250E94CB240E94AC240E9403250E94ED
:10126A00D8240E94A7240E9403250E94D8240E9401
:10127A00AC240E9403250E9444250E9414240E9443
:10128A001F250E942724309709F076C10E94F7256E
:10129A0009F040C0E9E00E94FF25AFE50E94302333
:1012AA000D9902C020FC01C011C0A8E6B8E00E9456
:1012BA0004260E940A26139728F0E0E0E0936808C3
:1012CA00E0936908E89420F8A2E303C0689420F840
:1012DA00A9E1B0E00E94032B0E9902C020FC01C0D4
:1012EA0012C0A8E6B8E00E940F26AF3FEFEFBE0794
:1012FA0031F4E2E0F0E0E0936808F0936908E894DA
:10130A0020F8A2E303C0689420F8A9E1B0E00E94A3
:10131A00032BEBC0E230A0E0FA0709F059C0EAE07B
:10132A000E94FF25AFE50E9430230D9902C020FCE0
:10133A0001C01EC0AAE6B8E00E9404260E94152633
:10134A001A9728F0E0E0E0936A08E0936B080E949D
:10135A000A26129749F40E941526159728F0E0E00C
:10136A00E0936A08E0936B08E89420F8A2E303C0CC
:10137A00689420F8A9E1B0E00E94032B0E9902C0FC
:10138A0020FC01C01EC0AAE6B8E00E940F261297F0
:10139A0051F40E941526AF3FEFEFBE0721F4E4E0B7
:1013AA00F0E00E9468240E941526AF3FEFEFBE07C7
:1013BA0021F4E9E0F0E00E946824E89420F8A2E32E
:1013CA0003C0689420F8A9E1B0E00E94032B8DC005
:1013DA00E330A0E0FA0709F042C0ECE00E94FF25E2
:1013EA00AFE50E9430230D9902C020FC01C011C054
:1013FA00AEE6B8E00E9404260E941A26169728F044
:10140A00E0E0E0936E08E0936F08E89420F8A2E326
:10141A0003C0689420F8A9E1B0E00E94032B0E995A
:10142A0002C020FC01C014C0AEE6B8E00E941F262C
:10143A000E941A26AF3FEFEFBE0731F4E5E0F0E075
:10144A00E0936E08F0936F08E89420F8A2E303C0D3
:10145A00689420F8A9E1B0E00E94032B46C0E4306A
:10146A00A0E0FA07F1F5EDE00E94FF25AFE50E9442
:10147A0030230D9902C020FC01C011C0A0E7B8E0DA
:10148A000E9404260E9425261A9728F0E0E0E0939D
:10149A007008E0937108E89420F8A2E303C0689406
:1014AA0020F8A9E1B0E00E94032B0E9902C020FCAB
:1014BA0001C012C0A0E7B8E00E941F260E9425269C
:1014CA00AF3FEFEFBE0731F4E9E0F0E0E0937008D8
:1014DA00F0937108E89401C0689420F80E94DE2312
:1014EA0004C00E942A260E94A7230F9902C020FC4A
:1014FA0001C03CC00E940A26EAE00E945F2A0E94BC
:10150A001526EA0FFB1FE0936C08F0936D080E9402
:10151A001A26EAE00E945F2A0E942526EA0FFB1F8C
:10152A00E0937208F0937308A0916C08B0916D086B
:10153A00599728F00E943126AAE8B5E00FC0E09139
:10154A006C08EA93E0917208EA93A0E00E94B8223C
:10155A000E942A260E943826A2EAB5E00E94502359
:10156A000E943F26E89420F8A2E303C0689420F87A
:10157A00A9E1B0E00E94032B0E944226119709F0CC
:10158A0057C20E94F72509F047C0E9E00E944726A2
:10159A00AFE50E9430230D9902C020FC01C011C0A2
:1015AA00A4E7B8E00E9404260E944C26149728F06B
:1015BA00E0E0E0937408E0937508E89420F8A2E369
:1015CA0003C0689420F8A9E1B0E00E94032B0E99A9
:1015DA0002C020FC01C019C0A4E7B8E00E941F267F
:1015EA000E944C26AF3FEFEFBE0731F4E3E0F0E094
:1015FA00E0937408F0937508959B02C0959801C012
:10160A00959AE89420F8A2E303C0689420F8A9E127
:10161A00B0E00E94032B9BC1E230A0E0FA0709F078
:10162A005BC0EAE00E944726AFE50E9430230D998D
:10163A0002C020FC01C01EC0A6E7B8E00E94042632
:10164A000E9451261A9728F0E0E0E0937608E0938A
:10165A0077080E944C26139749F40E945126129744
:10166A0028F0E0E0E0937608E0937708E89420F821
:10167A00A2E303C0689420F8A9E1B0E00E94032B1A
:10168A000E9902C020FC01C020C0A6E7B8E00E9463
:10169A001F260E944C26139751F40E945126AF3FF1
:1016AA00EFEFBE0721F4E1E0F0E00E948D240E94F2
:1016BA005126AF3FEFEFBE0721F4E9E0F0E00E94C8
:1016CA008D24E89420F8A2E303C0689420F8A9E1E5
:1016DA00B0E00E94032B3BC1E330A0E0FA0709F017
:1016EA0042C0ECE00E944726AFE50E9430230D99E4
:1016FA0002C020FC01C011C0AAE7B8E00E9404267B
:10170A000E945626129728F0E0E0E0937A08E093C8
:10171A007B08E89420F8A2E303C0689420F8A9E1C2
:10172A00B0E00E94032B0E9902C020FC01C014C035
:10173A00AAE7B8E00E941F260E945626AF3FEFEFA5
:10174A00BE0731F4E1E0F0E0E0937A08F0937B0819
:10175A00E89420F8A2E303C0689420F8A9E1B0E075
:10176A000E94032BF4C0E430A0E0FA0709F05BC042
:10177A00EDE00E944726AFE50E9430230D9902C092
:10178A0020FC01C01EC0ACE7B8E00E9404260E94FB
:10179A005626119749F40E945B26139728F0E0E039
:1017AA00E0937C08E0937D080E945B261A9728F054
:1017BA00E0E0E0937C08E0937D08E89420F8A2E357
:1017CA0003C0689420F8A9E1B0E00E94032B0E99A7
:1017DA0002C020FC01C020C0ACE7B8E00E941F266E
:1017EA000E945626119751F40E945B26AF3FEFEFF5
:1017FA00BE0721F4E2E0F0E00E94A2240E945B26E8
:10180A00AF3FEFEFBE0721F4E9E0F0E00E94A22427
:10181A00E89420F8A2E303C0689420F8A9E1B0E0B4
:10182A000E94032B94C0E530A0E0FA0709F042C0F9
:10183A00EFE00E944726AFE50E9430230D9902C0CF
:10184A0020FC01C011C0A0E8B8E00E9404260E9452
:10185A00E8251A9728F0E0E0E0938008E0938108F1
:10186A00E89420F8A2E303C0689420F8A9E1B0E064
:10187A000E94032B0E9902C020FC01C014C0A0E8EC
:10188A00B8E00E941F260E94E825AF3FEFEFBE078F
:10189A0031F4E9E0F0E0E0938008F0938108E894FD
:1018AA0020F8A2E303C0689420F8A9E1B0E00E94FE
:1018BA00032B4DC0E630A0E0FA0709F046C0E0E18C
:1018CA000E944726AFE50E9430230D9902C020FCF2
:1018DA0001C013C0A2E8B8E00E940426A0918208C1
:1018EA00B09183081A9728F0E0E0E0938208E09329
:1018FA008308E89420F8A2E303C0689420F8A9E1D9
:10190A00B0E00E94032B0E9902C020FC01C016C051
:10191A00A2E8B8E00E941F26A0918208B09183082D
:10192A00AF3FEFEFBE0731F4E9E0F0E0E093820861
:10193A00F0938308E89420F8A2E303C0689420F89F
:10194A00A9E1B0E00E94032B02C00E942A260F9947
:10195A0002C020FC01C066C00E944C26EAE00E9438
:10196A005F2A0E945126EA0FFB1FE0937808F09342
:10197A0079080E945626EAE00E945F2A0E945B26A6
:10198A00EA0FFB1FE0937E08F0937F080E94E82588
:10199A000E94ED25E0938408F0938508A0917808C9
:1019AA00B0917908EFE1F0E00E94512A0E2EA09141
:1019BA007E08B0917F08ECE0F0E00E94512A0E2ADE
:1019CA00A0917808B0917908E0E0F0E00E942D2A11
:1019DA000E2AA0917E08B0917F08E0E0F0E00E9414
:1019EA002D2AE02929F00E943126A2EBB5E012C087
:1019FA00E2E0EA93E0917808EA93E0917E08EA93BC
:101A0A00A09184080E94E0220E942A260E94382679
:101A1A00A7ECB5E00E9450230E943F26E89420F8E4
:101A2A00A2E303C0689420F8A9E1B0E00E94032B66
:101A3A000E944226129709F085C10E94F72509F0F3
:101A4A0047C0E6E00E9423250E941E24AFE50E94BB
:101A5A0030230D9902C020FC01C015C00E946026E7
:101A6A003A960E9444240E94B124A436E0E0BE07BC
:101A7A0034F00E946026E456F0400E944424E89420
:101A8A0020F8A2E303C0689420F8A9E1B0E00E941C
:101A9A00032B0E9902C020FC01C013C00E946026CD
:101AAA003A970E944424A0918F08AA2332F40E94F4
:101ABA006026EC59FF4F0E944424E89420F8A2E3E0
:101ACA0003C0689420F8A9E1B0E00E94032BEAC0A1
:101ADA00E230A0E0FA0709F049C0E7E00E942325B6
:101AEA000E941E24AFE50E9430230D9902C020FCFB
:101AFA0001C016C0AEE8B8E00E9404260E94B124D4
:101B0A0011970E94AC24E930A0E0FA0729F40E9458
:101B1A0060263A970E944424E89420F8A2E303C07E
:101B2A00689420F8A9E1B0E00E94032B0E9902C044
:101B3A0020FC01C014C0AEE8B8E00E941F260E9433
:101B4A00B12411960E94AC24309729F40E94602691
:101B5A003A960E944424E89420F8A2E303C06894C9
:101B6A0020F8A9E1B0E00E94032B9CC0E330A0E07A
:101B7A00FA0709F047C0ECE00E9423250E941E24C0
:101B8A00AFE50E9430230D9902C020FC01C015C0A8
:101B9A000E9465263A960E9449240E94BE24A436D1
:101BAA00E0E0BE0734F00E946526E456F0400E9449
:101BBA004924E89420F8A2E303C0689420F8A9E134
:101BCA00B0E00E94032B0E9902C020FC01C013C092
:101BDA000E9465263A970E944924A0919108AA2357
:101BEA0032F40E946526EC59FF4F0E944924E8947A
:101BFA0020F8A2E303C0689420F8A9E1B0E00E94AB
:101C0A00032B50C0E430A0E0FA0709F049C0EDE028
:101C1A000E9423250E941E24AFE50E9430230D99BD
:101C2A0002C020FC01C016C0A0E9B8E00E94042648
:101C3A000E94BE2411970E94AC24E930A0E0FA0762
:101C4A0029F40E9465263A970E944924E89420F8CC
:101C5A00A2E303C0689420F8A9E1B0E00E94032B34
:101C6A000E9902C020FC01C014C0A0E9B8E00E948D
:101C7A001F260E94BE2411960E94AC24309729F494
:101C8A000E9465263A960E944924E89420F8A2E325
:101C9A0003C0689420F8A9E1B0E00E94032B02C0B7
:101CAA000E942A260F9902C020FC01C047C00E9448
:101CBA0065260E94B124AE17BF07A4F50E94B62478
:101CCA000E94C3240E942A260E946A26EFE9F2E0B3
:101CDA000E946F260E9460260E9403250E94742695
:101CEA000E9414240E947B260E948226E5EBF2E0E1
:101CFA000E946F260E9465260E9403250E94742670
:101D0A000E9414240E947B260E94EE23E2E00E9495
:101D1A008526A7EDB5E00E948926E89420F80E945E
:101D2A00DE230BC0E89420F8E2E00E9423250E94FB
:101D3A008C260E948F260E943F2604C0689420F8B1
:101D4A000E94A7230E944226139709F07DC10E9490
:101D5A00F72509F045C0E6E00E949826AFE50E9403
:101D6A0030230D9902C020FC01C015C00E949D2697
:101D7A003A960E944E240E94CB24A436E0E0BE0785
:101D8A0034F00E949D26E456F0400E944E24E894C6
:101D9A0020F8A2E303C0689420F8A9E1B0E00E9409
:101DAA00032B0E9902C020FC01C013C00E949D267D
:101DBA003A970E944E24A0919308AA2332F40E94D3
:101DCA009D26EC59FF4F0E944E24E89420F8A2E386
:101DDA0003C0689420F8A9E1B0E00E94032BE4C094
:101DEA00E230A0E0FA0709F047C0E7E00E9498262F
:101DFA00AFE50E9430230D9902C020FC01C016C035
:101E0A00A2E9B8E00E9404260E94CB2411970E94FE
:101E1A00AC24E930A0E0FA0729F40E949D263A97FB
:101E2A000E944E24E89420F8A2E303C0689420F8A4
:101E3A00A9E1B0E00E94032B0E9902C020FC01C068
:101E4A0014C0A2E9B8E00E941F260E94CB24119672
:101E5A000E94AC24309729F40E949D263A960E944B
:101E6A004E24E89420F8A2E303C0689420F8A9E17C
:101E7A00B0E00E94032B98C0E330A0E0FA0709F013
:101E8A0045C0ECE00E949826AFE50E9430230D99E8
:101E9A0002C020FC01C015C00E94A2263A960E94E8
:101EAA0053240E94D824A436E0E0BE0734F00E94EE
:101EBA00A226E456F0400E945324E89420F8A2E3B4
:101ECA0003C0689420F8A9E1B0E00E94032B0E99A0
:101EDA0002C020FC01C013C00E94A2263A970E94A9
:101EEA005324A0919508AA2332F40E94A226EC5901
:101EFA00FF4F0E945324E89420F8A2E303C0689499
:101F0A0020F8A9E1B0E00E94032B4EC0E430A0E023
:101F1A00FA0709F047C0EDE00E949826AFE50E9453
:101F2A0030230D9902C020FC01C016C0A4E9B8E014
:101F3A000E9404260E94D82411970E94AC24E930FA
:101F4A00A0E0FA0729F40E94A2263A970E94532495
:101F5A00E89420F8A2E303C0689420F8A9E1B0E06D
:101F6A000E94032B0E9902C020FC01C014C0A4E9F0
:101F7A00B8E00E941F260E94D82411960E94AC2421
:101F8A00309729F40E94A2263A960E945324E89494
:101F9A0020F8A2E303C0689420F8A9E1B0E00E9407
:101FAA00032B02C00E942A260F9902C020FC01C0FE
:101FBA0047C00E94A2260E94CB24AE17BF07A4F5F1
:101FCA000E94D0240E94DD240E942A260E946A26AA
:101FDA00E0EEF2E00E946F260E949D260E940325F1
:101FEA000E9474260E9414240E947B260E94822644
:101FFA00EBEFF2E00E946F260E94A2260E940325C0
:10200A000E9474260E9414240E947B260E94EE23BA
:10201A00E2E00E948526A7EEB5E00E948926E894B0
:10202A0020F80E94DE230BC0E89420F8E2E00E9428
:10203A0023250E948C260E948F260E943F2604C0D8
:10204A00689420F80E94A7230E943A24A7EFB5E0DB
:10205A000E948620E03009F0B6C40E94A7260E949A
:10206A00C7260E94CD260E94D3260E94D926A5E122
:10207A000E943F240E94DE26A6E10E943F240E947D
:10208A00E326A7E10E943F240E94E826A8E10E94D5
:10209A003F240E94ED26A9E10E943F240E94F226D5
:1020AA00AAE10E943F240E94F726ABE10E943F2446
:1020BA000E94FC26ACE10E943F240E940127ADE168
:1020CA000E943F240E940627E1E0F0E0E0934108E5
:1020DA00F09342080E942224149794F40E94272421
:1020EA0033970E942C2421F40E943024ACE303C0CD
:1020FA000E943024A0E20E9430230E94D123EACF1A
:10210A00E3E0EA93A0E00E9411230E94E524EBE1B8
:10211A00F3E00E940B27E0E00E941025EAE2F3E0D8
:10212A000E9412270E9419270E941E270E94232715
:10213A000E9403250E9429270E9403250E94192430
:10214A000E941F25E0E00E9423250E94E524EFE378
:10215A00F3E00E942B270E9419270E9432270E942F
:10216A0023270E9403250E9437270E9403250E94E5
:10217A0019240E941F25E0E00E943825E4E5F3E0D7
:10218A000E9439270E9419270E9440270E9423276C
:10219A000E9403250E9445270E9403250E941924B4
:1021AA000E941F250E942724349709F04CC10E94DF
:1021BA00F72509F041C0EAE00E944726AFE50E94F0
:1021CA0030230D9902C020FC01C014C00E94472789
:1021DA000E944C270E941E27A83EE3E0BE0734F067
:1021EA000E944727E85EF3400E945327E89420F8AC
:1021FA00A2E303C0689420F8A9E1B0E00E94032B8F
:10220A000E9902C020FC01C010C00E945827A0915C
:10221A005608AA2332F40E944727E851FC4F0E942D
:10222A005327E89420F8A2E303C0689420F8A9E1B0
:10223A00B0E00E94032BA0C0E230A0E0FA0709F048
:10224A004BC0EBE00E944726AFE50E9430230D9970
:10225A0002C020FC01C017C00E9447273A960E947C
:10226A0053270E941E271A970E94A724DF010E9463
:10227A00AC24E930A0E0FA0711F40E945827E89448
:10228A0020F8A2E303C0689420F8A9E1B0E00E9414
:10229A00032B0E9902C020FC01C017C00E944727D9
:1022AA003A970E9453270E941E271A960E94A72433
:1022BA00DF010E94AC24309721F40E9447270E9434
:1022CA004C27E89420F8A2E303C0689420F8A9E117
:1022DA00B0E00E94032B50C0E330A0E0FA0709F0F7
:1022EA0047C0EDE00E944726AFE50E9430230D99D2
:1022FA0002C020FC01C016C0A5E5B8E00E94042671
:10230A000E941E2711970E94AC24E930A0E0FA0728
:10231A0029F40E9447273A970E945327E89420F805
:10232A00A2E303C0689420F8A9E1B0E00E94032B5D
:10233A000E9902C020FC01C014C0A5E5B8E00E94B5
:10234A001F260E941E2711960E94AC24309729F45A
:10235A000E9447273A960E945327E89420F8A2E35E
:10236A0003C0689420F8A9E1B0E00E94032B04C0DE
:10237A000E942A260E94A7230F9902C020FC01C0AE
:10238A005CC00E941E270E945C27EF930E9461276F
:10239A00FF93EF93A2E20E943F24AF91BF91EA0F0D
:1023AA00FB1F0E941E270E94452AAF91EA23C9F10A
:1023BA000E942223EFE1F0E00E9412270E94A72444
:1023CA000E94AC250E946927E3E00E9485260E94AC
:1023DA006A26E9E6F3E00E946F260E941E270E9401
:1023EA00A7240E9403250E9429270E9403250E94F0
:1023FA0019240E946D270E947227E3E00E94232578
:10240A000E94E524EBE8F3E00E9412270E94A72429
:10241A000E9403250E9429270E9403250E947527EE
:10242A0004C00E943826ADEFB5E00E9450230E94F6
:10243A003F26E89420F8A2E303C0689420F8A9E1B3
:10244A00B0E00E94032B0E9427243497E130A0E0D9
:10245A00FA0709F064C10E94F72509F043C0EAE0CF
:10246A000E9423250E941E24AFE50E9430230D9965
:10247A0002C020FC01C014C00E947C270E94812750
:10248A000E943227A83EE3E0BE0734F00E947C2770
:10249A00E85EF3400E948827E89420F8A2E303C08C
:1024AA00689420F8A9E1B0E00E94032B0E9902C0BB
:1024BA0020FC01C010C00E948D27A0915808AA23B1
:1024CA0032F40E947C27E851FC4F0E948827E89446
:1024DA0020F8A2E303C0689420F8A9E1B0E00E94C2
:1024EA00032BA4C0E230A0E0FA0709F04DC0EBE0EC
:1024FA000E9423250E941E24AFE50E9430230D99D5
:10250A0002C020FC01C017C00E947C273A960E9494
:10251A0088270E9432271A970E94A724DF010E9467
:10252A00AC24E930A0E0FA0711F40E948D27E89460
:10253A0020F8A2E303C0689420F8A9E1B0E00E9461
:10254A00032B0E9902C020FC01C017C00E947C27F1
:10255A003A970E9488270E9432271A960E94A72437
:10256A00DF010E94AC24309721F40E947C270E944C
:10257A008127E89420F8A2E303C0689420F8A9E12F
:10258A00B0E00E94032B52C0E330A0E0FA0709F042
:10259A0049C0EDE00E9423250E941E24AFE50E9457
:1025AA0030230D9902C020FC01C016C0A7E5B8E08F
:1025BA000E9404260E94322711970E94AC24E93017
:1025CA00A0E0FA0729F40E947C273A970E948827FC
:1025DA00E89420F8A2E303C0689420F8A9E1B0E0E7
:1025EA000E94032B0E9902C020FC01C014C0A7E56B
:1025FA00B8E00E941F260E94322711960E94AC243E
:10260A00309729F40E947C273A960E948827E894FA
:10261A0020F8A2E303C0689420F8A9E1B0E00E9480
:10262A00032B04C00E942A260E94A7230F9902C0E6
:10263A0020FC01C06EC00E9432270E945C27EF93E3
:10264A000E944B25FF93EF93A0E20E943F24AF9193
:10265A00BF91EA0FFB1F0E9432270E944B2AAF91BB
:10266A00EA23EF930E949127FF93EF93A4E20E943B
:10267A003F24AF91BF91EA0FFB1F0E9432270E94AD
:10268A00452AAF91EA23C9F10E942223E1E2F0E050
:10269A000E942B270E94A7240E94C4250E94692712
:1026AA00E3E00E9485260E946A26E6EBF3E00E9498
:1026BA006F260E9432270E94A7240E9403250E94A7
:1026CA0037270E9403250E9419240E946D270E9421
:1026DA007227E3E00E9423250E94E524EBECF3E055
:1026EA000E942B270E94A7240E9403250E943727B5
:1026FA000E9403250E94752704C00E943826A8E17B
:10270A00B6E00E9450230E943F26E89420F8A2E3F4
:10271A0003C0689420F8A9E1B0E00E94032B0E944C
:10272A0027243497E230A0E0FA0709F04CC10E944E
:10273A00F72509F041C0EAE00E949826AFE50E9419
:10274A0030230D9902C020FC01C014C00E949927B1
:10275A000E949E270E944027A83EE3E0BE0734F06D
:10276A000E949927E85EF3400E94A527E89420F882
:10277A00A2E303C0689420F8A9E1B0E00E94032B09
:10278A000E9902C020FC01C010C00E94AA27A09185
:10279A005A08AA2332F40E949927E851FC4F0E9452
:1027AA00A527E89420F8A2E303C0689420F8A9E1D9
:1027BA00B0E00E94032BA0C0E230A0E0FA0709F0C3
:1027CA004BC0EBE00E949826AFE50E9430230D999A
:1027DA0002C020FC01C017C00E9499273A960E94A5
:1027EA00A5270E9440271A970E94A724DF010E946A
:1027FA00AC24E930A0E0FA0711F40E94AA27E89471
:10280A0020F8A2E303C0689420F8A9E1B0E00E948E
:10281A00032B0E9902C020FC01C017C00E94992701
:10282A003A970E94A5270E9440271A960E94A72439
:10283A00DF010E94AC24309721F40E9499270E945C
:10284A009E27E89420F8A2E303C0689420F8A9E13F
:10285A00B0E00E94032B50C0E330A0E0FA0709F071
:10286A0047C0EDE00E949826AFE50E9430230D99FB
:10287A0002C020FC01C016C0A9E5B8E00E940426E7
:10288A000E94402711970E94AC24E930A0E0FA0781
:10289A0029F40E9499273A970E94A527E89420F8DC
:1028AA00A2E303C0689420F8A9E1B0E00E94032BD8
:1028BA000E9902C020FC01C014C0A9E5B8E00E942C
:1028CA001F260E94402711960E94AC24309729F4B3
:1028DA000E9499273A960E94A527E89420F8A2E335
:1028EA0003C0689420F8A9E1B0E00E94032B04C059
:1028FA000E942A260E94A7230F9902C020FC01C029
:10290A005CC00E9440270E945C27EF930E946127C7
:10291A00FF93EF93A2E20E943F24AF91BF91EA0F87
:10292A00FB1F0E9440270E944B2AAF91EA23C9F15C
:10293A000E942223E3E2F0E00E9439270E94A724A2
:10294A000E94DC250E946927E3E00E9485260E94F6
:10295A006A26E6EFF3E00E946F260E9440270E9453
:10296A00A7240E9403250E9445270E9403250E944E
:10297A0019240E946D270E947227E3E00E942325F2
:10298A000E94E524EBE0F4E00E9439270E94A72484
:10299A000E9403250E9445270E9403250E9475274D
:1029AA0004C00E943826A3E3B6E00E9450230E9486
:1029BA003F26E89420F8A2E303C0689420F8A9E12E
:1029CA00B0E00E94032B0E943A24ADE4B6E00E94D4
:1029DA008620E03009F00DC3E2E0F0E0E093410820
:1029EA00F09342080E942224149794F40E94272408
:1029FA0035970E942C2421F40E943024ACE303C0B2
:102A0A000E943024A0E20E9430230E94D123EACF00
:102A1A000E94D9230E94E524E8E3F4E00E940B27F0
:102A2A00E2E00E941025EDE4F4E00E94AE270E9445
:102A3A00B327E0E00E943825E0E5F4E00E94B827D9
:102A4A000E94BF270E94C4270E94C9270E94CE273E
:102A5A000E94D3270E94D8270E94DD270E94E227DE
:102A6A000E9408250E942724379709F0C2C20E94B3
:102A7A00F72509F040C0E7E00E949826AFE50E94DA
:102A8A0030230D9902C020FC01C011C0A8E5B7E0AF
:102A9A000E9404260E94E7271A972CF0E0E0E093B0
:102AAA005807E0935907E89420F8A2E303C0689412
:102ABA0020F8A9E1B0E00E94032B0E9902C020FC85
:102ACA0001C012C0A8E5B7E00E941F260E94E727AE
:102ADA00AF3FEFEFBE0721F4E9E0F0E00E94DE2607
:102AEA00E89420F8A2E303C0689420F8A9E1B0E0D2
:102AFA000E94032B2CC2E230A0E0FA0709F040C082
:102B0A00E8E00E949826AFE50E9430230D9902C0A2
:102B1A0020FC01C011C0AAE5B7E00E9404260E9469
:102B2A00EC271A972CF0E0E0E0935A07E0935B0752
:102B3A00E89420F8A2E303C0689420F8A9E1B0E081
:102B4A000E94032B0E9902C020FC01C012C0AAE504
:102B5A00B7E00E941F260E94EC27AF3FEFEFBE07A7
:102B6A0021F4E9E0F0E00E94E326E89420F8A2E3E9
:102B7A0003C0689420F8A9E1B0E00E94032BE7C1E2
:102B8A00E330A0E0FA0709F040C0E9E00E94982685
:102B9A00AFE50E9430230D9902C020FC01C011C08C
:102BAA00ACE5B7E00E9404260E94F1271A972CF0A0
:102BBA00E0E0E0935C07E0935D07E89420F8A2E385
:102BCA0003C0689420F8A9E1B0E00E94032B0E9993
:102BDA0002C020FC01C012C0ACE5B7E00E941F266B
:102BEA000E94F127AF3FEFEFBE0721F4E9E0F0E0E2
:102BFA000E94E826E89420F8A2E303C0689420F82B
:102C0A00A9E1B0E00E94032BA2C1E430A0E0FA07D8
:102C1A0009F040C0EAE00E949826AFE50E943023FE
:102C2A000D9902C020FC01C011C0AEE5B7E00E94B8
:102C3A0004260E94F6271A972CF0E0E0E0935E073C
:102C4A00E0935F07E89420F8A2E303C0689420F8B1
:102C5A00A9E1B0E00E94032B0E9902C020FC01C03A
:102C6A0012C0AEE5B7E00E941F260E94F627AF3FCA
:102C7A00EFEFBE0721F4E9E0F0E00E94ED26E894C8
:102C8A0020F8A2E303C0689420F8A9E1B0E00E940A
:102C9A00032B5DC1E530A0E0FA0709F040C0EBE084
:102CAA000E949826AFE50E9430230D9902C020FCAD
:102CBA0001C011C0A0E6B7E00E9404260E94FB27CB
:102CCA001A972CF0E0E0E0936007E0936107E8943C
:102CDA0020F8A2E303C0689420F8A9E1B0E00E94BA
:102CEA00032B0E9902C020FC01C012C0A0E6B7E077
:102CFA000E941F260E94FB27AF3FEFEFBE0721F479
:102D0A00E9E0F0E00E94F226E89420F8A2E303C08A
:102D1A00689420F8A9E1B0E00E94032B18C1E630BC
:102D2A00A0E0FA0709F040C0ECE00E949826AFE55F
:102D3A000E9430230D9902C020FC01C011C0A2E6F6
:102D4A00B7E00E9404260E9400281A972CF0E0E0BF
:102D5A00E0936207E0936307E89420F8A2E303C0D4
:102D6A00689420F8A9E1B0E00E94032B0E9902C0F2
:102D7A0020FC01C012C0A2E6B7E00E941F260E94F2
:102D8A000028AF3FEFEFBE0721F4E9E0F0E00E9430
:102D9A00F726E89420F8A2E303C0689420F8A9E192
:102DAA00B0E00E94032BD3C0E730A0E0FA0709F095
:102DBA0040C0EDE00E949826AFE50E9430230D99AD
:102DCA0002C020FC01C011C0A4E6B7E00E9404269C
:102DDA000E9405281A972CF0E0E0E0936407E0933C
:102DEA006507E89420F8A2E303C0689420F8A9E1F3
:102DFA00B0E00E94032B0E9902C020FC01C012C051
:102E0A00A4E6B7E00E941F260E940528AF3FEFEF15
:102E1A00BE0721F4E9E0F0E00E94FC26E89420F8DD
:102E2A00A2E303C0689420F8A9E1B0E00E94032B52
:102E3A008EC0E830A0E0FA0709F040C0EEE00E9438
:102E4A009826AFE50E9430230D9902C020FC01C0EC
:102E5A0011C0A6E6B7E00E9404260E940A281A9723
:102E6A002CF0E0E0E0936607E0936707E89420F827
:102E7A00A2E303C0689420F8A9E1B0E00E94032B02
:102E8A000E9902C020FC01C012C0A6E6B7E00E945B
:102E9A001F260E940A28AF3FEFEFBE0721F4E9E0A0
:102EAA00F0E00E940127E89420F8A2E303C06894A6
:102EBA0020F8A9E1B0E00E94032B49C0E930A0E064
:102ECA00FA0709F040C0EFE00E949826AFE50E9499
:102EDA0030230D9902C020FC01C011C0A8E6B7E05A
:102EEA000E9404260E940F281A972CF0E0E0E09333
:102EFA006807E0936907E89420F8A2E303C068949E
:102F0A0020F8A9E1B0E00E94032B0E9902C020FC30
:102F1A0001C012C0A8E6B7E00E941F260E940F282F
:102F2A00AF3FEFEFBE0721F4E9E0F0E00E94062789
:102F3A00E89420F8A2E303C0689420F8A9E1B0E07D
:102F4A000E94032B04C00E942A260E94A7230F99DD
:102F5A0002C020FC01C047C0E0915807F091590710
:102F6A003097B9F10E941428E3E00E9485260E9456
:102F7A001728E6E5F4E00E94B8270E94BF270E94BE
:102F8A00C4270E94C9270E94CE270E94D3270E94E5
:102F9A00D8270E94DD270E94E2270E941C280E944F
:102FAA00E524E3E7F4E00E940B27E5E00E942325ED
:102FBA000E94E524EDE4F4E0FA93EA93EAE3F7E009
:102FCA000E9402240E94B3270E943F260E942128C1
:102FDA0006C00E943826A1E5B6E00E948926E89438
:102FEA0020F8A2E303C0689420F8A9E1B0E00E94A7
:102FFA00032B0C9902C020FC01C045C0A3E4B8E031
:10300A000E9404260E942724309741F40E94142823
:10301A000E943A24A3E6B6E00E949A200E94422621
:10302A00149741F40E9414280E943A24A8E6B6E0B4
:10303A000E949A200E944226179741F40E9414285F
:10304A000E943A24AEE6B6E00E949A200E944226E6
:10305A001897A9F4EFEFFFEFE0934308F0934408C1
:10306A000E9422230E943A24A2E7B6E00E949A20F4
:10307A000E941E24E0E0E0934508E0934608E894A5
:10308A0020F8A2E303C0689420F8A9E1B0E00E9406
:10309A00032B0B991BC020FE19C00E943A24A8E7F3
:1030AA00B6E00E946928EF930E943A24ACE7B6E0A2
:1030BA000E946928AF91EA2BEF930E943A24A1E873
:1030CA00B6E00E946928AF91EA2B09F408C0A5E48A
:1030DA00B8E00E940426E89420F8A2E303C06894AA
:1030EA0020F8A9E1B0E00E94032B0895EA93E0EFEB
:1030FA00E2BFE9911895AA93BA93EA93FA93EFB7C4
:10310A00EA93AFE4B8E00E940426E991EFBFF9918F
:10311A00E991B991A99118950A921A92FA926A9329
:10312A007A938A939A93AA93BA93EA93FA93EFB704
:10313A00EA93E6E9F8E0FA93EA93A8E9B8E00E948C
:10314A008B05E991EFBFF991E991B991A99199910B
:10315A00899179916991F990199009901895E0E00F
:10316A00EABBEBBBE7BBECE1E8BBE0E1E4BBE0E0D8
:10317A00E5BBE0EEE1BBE0E0E2BBE2B9E8EFE3B9D0
:10318A00E0E0E0936100E8E0E0936200E0E0E093D1
:10319A006400E0936500E0BFE1E0E3BFE0EFE2BF77
:1031AA00E0E0E1BFEFBDE4E4EEBDEFEFEDBDEEEF31
:1031BA00ECBDE0E0E7BDE6BDEBBDEABDE9BDE8BDBB
:1031CA00E0937900E0937800E5BDE4BDE3BDE093C8
:1031DA008B00E0938A00E0938900E0938800E093F3
:1031EA008100E0938000E0938700E0938600E093FB
:1031FA008500E0938400E0938300E0938200E4E09A
:10320A00E7BFE0E0E0937D00E0936A00E0E8EABF10
:10321A00E9BFE8BFE0E0EBB9E8E1EAB9E6E0E0934C
:10322A009500E0E0E0939000E3E3E9B9E0E0E093A1
:10323A009B00E8E1E0939A00E6E0E0939D00E0E07D
:10324A00E0939800E3E3E0939900E0E8E8B9E0E06E
:10325A00E7B9E3E8E6B9E0E0E0BDEDB9E093740070
:10326A000E94B32AE0E0EA93EA93A0E00E94862251
:10327A00A4E10E945C237894AC98A0E1B7E20E9492
:10328A00032B0E947A060E942223A5E10E943F2472
:10329A000E94DE26A6E10E943F240E94E326A7E1BF
:1032AA000E943F240E94E826A8E10E943F240E942F
:1032BA00ED26A9E10E943F240E94F226AAE10E947B
:1032CA003F240E94F726ABE10E943F240E94FC267D
:1032DA00ACE10E943F240E940127ADE10E943F24F5
:1032EA000E9406270E94E7270E946F280E2E0E943E
:1032FA00EC270E946F280E220E94F1270E946F2855
:10330A000E220E94F6270E946F280E220E94FB2797
:10331A000E946F280E220E9400280E946F280E2207
:10332A000E9405280E946F280E220E940A280E94E5
:10333A006F280E220E940F280E946F280E220E94D8
:10334A00E7270E9474280E94EC270E9474280E9492
:10335A00F1270E9474280E94F6270E9474280E946E
:10336A00FB270E9474280E9400280E9474280E9449
:10337A0005280E9474280E940A280E9474280E9424
:10338A000F28E9E0F0E00E94392AE02139F5E0E06F
:10339A00E0935807E0935907E3E0F0E00E94E32640
:1033AA00E4E0F0E00E94E826E2E0F0E00E94ED2688
:1033BA00E7E0F0E00E94F226E1E0F0E00E94F72662
:1033CA00E1E0F0E00E94FC26E8E0F0E00E9401273C
:1033DA00E5E0F0E00E9406270E942128EAE3F7E0F0
:1033EA00FA93EA93E6E5F4E00E94B8270E94BF2721
:1033FA000E94C4270E94C9270E94CE270E94D32771
:10340A000E94D8270E94DD270E94E2270E941C28DA
:10341A000E94A7260E94C7260E94CD260E94D32674
:10342A000E94D926D2010E946F280E2ED3010E9433
:10343A006F280E22D4010E946F280E22D5010E9405
:10344A006F280E22D6010E946F280E22A0915007E3
:10345A00B09151070E946F280E22A0915207B09195
:10346A0053070E946F280E22A0915407B091550766
:10347A000E946F280E22A0915607B09157070E940A
:10348A006F280E22D2010E947428D3010E94742848
:10349A00D4010E947428D5010E947428D6010E9482
:1034AA007428A0915007B09151070E947428A091E6
:1034BA005207B09153070E947428A0915407B09103
:1034CA0055070E947428A0915607B0915707E9E062
:1034DA00F0E00E94392AE02109F065C0442455240D
:1034EA00E3E0F0E03F01E4E0F0E04F01E2E0F0E089
:1034FA005F01E7E0F0E06F01E1E0F0E0E093500700
:10350A00F0935107E0935207F0935307E8E0F0E095
:10351A00E0935407F0935507E5E0F0E00E94D926BE
:10352A00EBE0F0E0FA93EA93A42D0E94EC06ECE0BB
:10353A00F0E0FA93EA93A62D0E94EC06EDE0F0E0A3
:10354A00FA93EA93A82D0E94EC06EEE0F0E0FA93D3
:10355A00EA93AA2D0E94EC06EFE0F0E0FA93EA93D0
:10356A00AC2D0E94EC06E0E1F0E0FA93EA93A09118
:10357A0050070E94EC06E1E1F0E0FA93EA93A09189
:10358A0052070E94EC06E2E1F0E0FA93EA93A09176
:10359A0054070E94EC06E3E1F0E0FA93EA93A09163
:1035AA0056070E94EC06E5E4F7E0FA93EA93E6E5AB
:1035BA00F4E0FA93EA93F2010E940325F3010E94D0
:1035CA000325F4010E940325F5010E940325F60153
:1035DA000E940325E0915007F09151070E940325AC
:1035EA00E0915207F09153070E940325E091540796
:1035FA00F09155070E940325E0915607F09157076D
:10360A000E9403250E941C280E944B25FF93EF93DA
:10361A00A0E20E943F24AF91BF910E945325FF93DD
:10362A00EF93A2E20E943F24AF91BF910E946125CD
:10363A00FF93EF93A4E20E943F24AF91BF910E94AF
:10364A006F2579F00E9491250E94AC250E94B82529
:10365A000E94C4250E94D0250E94DC25AE2F0E941C
:10366A00EC06B29905C0A0E025FCA1E0E0E004C0A8
:10367A00A0E025FCA1E0E1E00E94282AB39905C058
:10368A00A0E026FCA1E0E0E004C0A0E026FCA1E066
:10369A00E1E00E94282AE89422F821F8B49901C0AE
:1036AA0001C0689427F80E942007A1E00E947A28A6
:1036BA00E0934708F09348080E9489280E946A2AE2
:1036CA00E0934B08F0934C080E9489280E949028A6
:1036DA00E0934D08F0934E08A0E00E947A28E09308
:1036EA004908F0934A080E9498280E946A2AE0939F
:1036FA005108F09352080E9498280E949028E0935B
:10370A005308F0935408A0E00E943F24E0938608EF
:10371A00F0938708A1E00E943F24E0938808F09381
:10372A0089080E949F280E943F2A6E2F0E94A8287B
:10373A000E94B128A0E022FCA1E00E94C22341F12C
:10374A00E89422F80E946A260E94B6280E94B928A4
:10375A000E9403250E9431250E9403250E941924F4
:10376A000E947B260E94BB28E7EAF4E00E94AE276B
:10377A000E94B9280E9403250E9431250E94032530
:10378A000E9419240E9417280E94C2280E94EE2330
:10379A000E949F280E94452A0E94C92841F16894E4
:1037AA0022F80E94D2280E94B6280E94B9280E94B4
:1037BA0003250E9431250E9403250E9419240E9494
:1037CA007B260E94BB28E2EEF4E00E94AE270E940C
:1037DA00B9280E9403250E9431250E9403250E94D0
:1037EA0019240E9417280E94C2280E94032B0E94B3
:1037FA00A8280E944B2A0E94C92849F1689424F8F3
:10380A0022F80E946A260E94B6280E94B9280E94BD
:10381A0003250E9431250E9403250E9419240E9433
:10382A007B260E94BB28E2E1F5E00E94AE270E94B7
:10383A00B9280E9403250E9431250E9403250E946F
:10384A0019240E9417280E94C2280E94032BA2E072
:10385A000E943F24E0938A08F0938B08A3E00E9419
:10386A003F24E0938C08F0938D080E94D5280E948B
:10387A003F2A6E2F0E94DE280E94B128A0E021FC78
:10388A00A1E00E94C22341F1E89421F80E946A262D
:10389A000E94E7280E94EA280E9403250E944225E6
:1038AA000E9403250E9419240E947B260E94BB289D
:1038BA00E7E5F5E00E94AE270E94EA280E94032568
:1038CA000E9442250E9403250E9419240E9417285B
:1038DA000E94C2280E94032B0E94D5280E94452AD2
:1038EA000E94EC2841F1689421F80E94D2280E9493
:1038FA00E7280E94EA280E9403250E9442250E9486
:10390A0003250E9419240E947B260E94BB28E9E90C
:10391A00F5E00E94AE270E94EA280E9403250E9431
:10392A0042250E9403250E9419240E9417280E94FA
:10393A00C2280E94032B0E94DE280E944B2A0E9462
:10394A00EC2849F1689424F821F80E946A260E941A
:10395A00E7280E94EA280E9403250E9442250E9425
:10396A0003250E9419240E947B260E94BB28EDECA5
:10397A00F5E00E94AE270E94EA280E9403250E94D1
:10398A0042250E9403250E9419240E9417280E949A
:10399A00C2280E94032BA0E0B499A1E00E94F52856
:1039AA00A0E027FCA1E00E94FA28C1F0689427F859
:1039BA000E946A26E1E0F6E00E946F260E94FF2834
:1039CA000E94032B0E94D9230E948C26ECE0F6E089
:1039DA000E940B27A8EEB3E00E94EE23A0E0B49960
:1039EA00A1E00E94BD23A0E027FCA1E00E94C2231F
:1039FA00B1F0E89427F80E946A26EAE1F6E00E940C
:103A0A006F260E94FF280E94032B0E94D9230E943E
:103A1A008C26E5E2F6E00E940B270E943F26A0E0F2
:103A2A00B299A1E00E94F528A0E025FCA1E00E943D
:103A3A00FA28B1F0689425F80E94D228E2E3F6E069
:103A4A000E946F260E94FF280E94BB28E2E4F6E04B
:103A5A000E94AE270E9404290E94C2280E94032BBA
:103A6A00A0E0B299A1E00E94BD23A0E025FCA1E05C
:103A7A000E94C223B1F0E89425F80E946A26E7E67C
:103A8A00F6E00E946F260E94FF280E94BB28E9E701
:103A9A00F6E00E94AE270E9404290E94C2280E94D2
:103AAA00032BA0E0B399A1E00E94F528A0E026FC30
:103ABA00A1E00E94FA28B1F0689426F80E94D22860
:103ACA00E7E9F6E00E946F260E94FF280E94BB28C1
:103ADA00E8EAF6E00E94AE270E9404290E94C22862
:103AEA000E94032BA0E0B399A1E00E94BD23A0E0AD
:103AFA0026FCA1E00E94C223B1F0E89426F80E94B5
:103B0A006A26EDECF6E00E946F260E94FF280E94CA
:103B1A00BB28E0EEF6E00E94AE270E9404290E942C
:103B2A00C2280E94032BA0916208BB27E5E0F0E0BF
:103B3A000E94852AA0E0B0E00E942D2A0E2EA091B4
:103B4A006308E0E00E94282A0E22A0E034FCA1E0EB
:103B5A000E94C22309F482C0E89434F80E94222306
:103B6A00A7E8B6E00E9450230E946A260E94E7282E
:103B7A000E94EA280E9403250E9442250E940325EA
:103B8A000E9419240E947B260E9482260E94B6283F
:103B9A000E94B9280E9403250E9431250E9403250C
:103BAA000E9419240E947B260E9482260E940929CB
:103BBA000E94EA240E94FA240E9419240E947B2669
:103BCA000E9482260E940C290E9415250E941A250D
:103BDA000E9419240E947B260E94032BB29B05C0D7
:103BEA000E946A26E7E6F6E004C00E946A26E2E33B
:103BFA00F6E0FA93EA930E940F290E94FF280E9496
:103C0A00032BB39B05C00E946A26EDECF6E004C0C4
:103C1A000E946A26E7E9F6E0FA93EA930E940F29DE
:103C2A000E94FF280E94032BB49B05C00E946A26AB
:103C3A00EAE1F6E004C00E946A26E1E0F6E0FA93BF
:103C4A00EA930E940F290E94FF280E94032BA8E9E9
:103C5A00B6E00E9450230E94222306C0689434F8DA
:103C6A00A4E6B0E00E94032B0E944B25FF93EF933A
:103C7A00A0E20E943F24AF91BF91EA0FFB1FE0939D
:103C8A005B08F0935C080E946127FF93EF93A2E21E
:103C9A000E943F24AF91BF910E9412290E9491274E
:103CAA00FF93EF93A4E20E943F24AF91BF91EA0FE2
:103CBA00FB1FE0935F08F09360080E9419290E9495
:103CCA0022290E94452A0E942D2971F1689424F81C
:103CDA0031F8E89430F896980E946A260E940929D9
:103CEA000E94EA240E94FA240E9419240E947B2638
:103CFA000E94BB28E5E4F7E00E94AE270E94EA246E
:103D0A000E94FA240E9432290E94A7240E940325B5
:103D1A000E9437290E9403250E9414240E94172812
:103D2A000E94C2280E94032B0E946127FF93EF93EF
:103D3A00A2E20E943F24AF91BF910E9412290E94E1
:103D4A0019290F010E9422290E943929A0E030FC7A
:103D5A00A1E00E94FA2891F1E89431F8689430F8C9
:103D6A000E94D2280E9409290E94EA240E94FA2469
:103D7A000E9419240E947B260E94BB28E2E8F7E0F1
:103D8A000E94AE270E94EA240E94FA240E9448292F
:103D9A000E9403250E9437290E9403250E944A296E
:103DAA000E94A7240E9403250E944F290E940325EE
:103DBA000E9451290E94C2280E94032B0E9419299D
:103DCA000E945629A0E030FCA1E00E94BD23A0E099
:103DDA0031FCA1E0E1E00E94282AE029E12191F1E9
:103DEA009698E89431F830F80E946A260E940929C8
:103DFA000E94EA240E94FA240E9419240E947B2627
:103E0A000E94BB28EAEDF7E00E94AE270E94EA244E
:103E1A000E94FA240E9474290E9403250E944F29B5
:103E2A000E9403250E9476290E94A7240E94032546
:103E3A000E947B290E9403250E9451290E94C228C0
:103E4A000E94032B0E9419290E947D290E942D2974
:103E5A0059F1689431F8E89430F896980E94D2287B
:103E6A000E9409290E94EA240E94FA240E94192425
:103E7A000E947B260E94BB28EFE2F8E00E94AE2750
:103E8A000E94EA240E94FA240E948A290E94032599
:103E9A000E947B290E9403250E9414240E9417284D
:103EAA000E94C2280E94032B0E948C290E94222968
:103EBA000E94452A0E94952961F1689424F833F8F2
:103ECA00E89432F896980E946A260E940C290E9469
:103EDA0015250E941A250E9419240E947B260E94F9
:103EEA00BB28EBE6F8E00E94AE270E9415250E9447
:103EFA001A250E9448290E9403250E9437290E94F8
:103F0A0003250E9414240E9417280E94C2280E9496
:103F1A00032B0E948C290F010E9422290E94392911
:103F2A00A0E032FCA1E00E94FA2889F1E89433F873
:103F3A00689432F8969A0E94D2280E940C290E940C
:103F4A0015250E941A250E9419240E947B260E9488
:103F5A00BB28E8EAF8E00E94AE270E9415250E94D5
:103F6A001A250E9448290E9403250E9437290E9487
:103F7A0003250E9474290E9403250E944F290E944A
:103F8A0003250E9451290E94C2280E94032B0E94E5
:103F9A008C290E945629A0E032FCA1E00E94BD2390
:103FAA00A0E033FCA1E0E1E00E94282AE029E12117
:103FBA0081F19698E89433F832F80E946A260E94B2
:103FCA000C290E9415250E941A250E9419240E9474
:103FDA007B260E94BB28E0E0F9E00E94AE270E94FF
:103FEA0015250E94FA240E9474290E9403250E9422
:103FFA004F290E9403250E948A290E9403250E94B4
:10400A007B290E9403250E9451290E94C2280E94EE
:10401A00032B0E948C290E947D290E94952969F10F
:10402A00689433F8E89432F8689424F896980E94D1
:10403A006A260E940C290E9415250E941A250E94B0
:10404A0019240E947B260E94BB28E5E5F9E00E941C
:10405A00AE270E9415250E941A250E948A290E94CD
:10406A0003250E947B290E9403250E9414240E9492
:10407A0017280E94C2280E94032B21FC10C022FC90
:10408A000EC025FC0CC026FC0AC030FC08C031FC5E
:10409A0006C032FC04C033FC02C0E0E001C0E1E02B
:1040AA000E94AE2A23F823FE02C024FC01C002C0EB
:1040BA00AC9A01C0AC98A0E021FCA1E0E0E022FCAF
:1040CA00E1E0EA2BAE2FE0E025FCE1E0EA2BAE2F9F
:1040DA00E0E026FCE1E0EA2BAE2FE0E031FCE1E093
:1040EA00EA2BAE2FE0E033FCE1E0EA2B11F0959ADF
:1040FA0001C0959823FE02C0979801C0979AD3CA27
:10410A00FFCFBA93AA93E991F991A991B9916D91C7
:10411A007191671721F46623D1F7EE270895671B7B
:10412A00E1F3E1E008F4E2500895BA93AA93E99121
:10413A00F991A991B991CD0161916D936623E1F746
:10414A00FC010895BA93AA93A991B991EE27FF2782
:10415A006D91662311F03196FBCF0895BA93AA9315
:10416A00AA27BB27E991F9910590002011F0119631
:10417A00FBCFFD010895AA935D9BFECFE881ECB9C0
:10418A000C948923BA93AA931A930E949A2919F034
:10419A00A12FF1DFFACFAAE0EEDF0C945923BA93EC
:1041AA00AA931A930A93AA81BB8112960E94A12A02
:1041BA00309729F1AA81BB8114960E94A12A8F0106
:1041CA00309761F00230E0E01E0780F0F801319785
:1041DA008F01AA81BB811496ED93FC93AA81BB81BE
:1041EA0012960E9404263197AC81A083AA81BB81D2
:1041FA000E94A12AFF2312F00E94042606C0AA8167
:10420A00BB81EFEFFFEFED93FC93198108812596AF
:10421A000895BA93AA9326970E94062A10E0AC85BD
:10422A00BD85E0E0F0E0ED93FC93EA89FB893196E5
:10423A00EA8BFB8B3197E4912E2FE03009F41DC1F4
:10424A00E12FE03039F4253211F411E002C00E9466
:10425A00A22912C1E130A9F4253219F40E94A22937
:10426A000AC112E040E000E02D3211F401E004C17D
:10427A002B3211F44BE200C1203211F440E2FCC0AF
:10428A0002C0E23039F450E013E0203311F4006840
:10429A00F3C003C0E33009F0EFC0203310F02A3333
:1042AA0008F007C0AAE05A9F502DE22FE0535E0F94
:1042BA00E3C0E22FE33649F40E94A929E889F98983
:1042CA00A481AA930E94AF29D6C0E33741F40E9481
:1042DA00A9290E94B5290E94A7201E2F0AC0E037EB
:1042EA0061F40E94A9290E94B5290E94B3201E2FB9
:1042FA00086002600F7730E03CC0E43611F0E9361E
:10430A0011F4046002C0E53731F4ECE8F0E0EE8322
:10431A00FF8315E00CC0E83511F4086003C0E837E4
:10432A0009F0A9C0E6E9F0E0EE83FF8314E002FF9A
:10433A0017C00E94A929A889B9891496ED91FD91FF
:10434A00EA87FB87AB85AA232AF40E941F2AEA87F9
:10435A00FB874DE2403011F01F5F01C00B7F09C09F
:10436A000E94A929A889B98914960E94A12AEA87D4
:10437A00FB8700FD11C0151778F407FF08C002FF7C
:10438A0004C00B7F242F115001C020E301C020E29A
:10439A000E94A2295150EFCF312F01FF17C03030B0
:1043AA00A1F003FF06C0EE81FF812591EE83FF8312
:1043BA0005C0AE81BF812D91AE83BF830E94A22921
:1043CA00503009F051503150EACF4BC020E3EE8112
:1043DA00FF810E94A52AE887F987EE81FF8132963C
:1043EA00EE83FF83E885F985AA85BB85AE17BF07EB
:1043FA0050F02F5FA885B985EA85FB85EA1BFB0B80
:10440A00EA87FB87EFCF2A3328F003FF02C0295F30
:10441A0001C0295D04FD1AC0213320F4A885B9859D
:10442A00119709F409C0531710F000FF01C013C017
:10443A0020E207FF0BC020E3006102FF07C00B7FE9
:10444A004A930E94AF29503009F051500E94A22984
:10445A00503009F051503150A885B985129708F0AB
:10446A00B5CF00FF08C0503031F05150E0E2EA9376
:10447A000E94AF29F8CF10E0D8CEAC85BD85ED916A
:10448A00FD910E940D2A64960895FF92F82E2697B0
:10449A000E94082ADE011C960E941B2A0E94A12A59
:1044AA00309719F4EFEFFFEF27C0DE0116960E944E
:1044BA001B2A8D01DE011C960E941B2AED91FD919B
:1044CA00EE83FF83E0E0E887E987DE011A960E941F
:1044DA001B2AED91FD91FA93EA931A930A93E4ED5C
:1044EA00F0E2FA93EA93DE011A9693DE9F01AE8117
:1044FA00BF81E0E0EC93F9010E940F2A2A96FF900F
:10450A000895AA93EA81E370EA83E981E03019F019
:10451A00EA81E061EA83E881E03019F0EA81E06843
:10452A00EA830E94BF29A7E00E94EB2AAA810E947F
:10453A00C429BBC0BA93AA930E94BF29A0E00E94D3
:10454A00C4290E94C8290E94D0290E94D7290E9402
:10455A00DD29AE2F0E948B23AC81BD81EC930E9492
:10456A00C72A26960895AA930E94BF29A0E00E940E
:10457A00E3290E94EA290E94F1290E94C42995C0D0
:10458A00BA93AA930E94BF29A3E00E94C4290E9459
:10459A00C829AE81BF81EC930E94D729AC81BD8125
:1045AA00EC930E94D7290E94DD290E94D0290E94FB
:1045BA00C72A28960895AA930E94BF29A3E00E94B9
:1045CA00EB2AAB810E94F1290E94EA290E94E32981
:1045DA000E94C42924960895AA93EBB3EF70AE2FD4
:1045EA00E881E07FEA2BEBBB8DE08A95F1F7DA9A56
:1045FA008DE08A95F1F7DA988DE08A95F1F784C013
:10460A00AA93A881E9DFE881E295E883A881E4DF3B
:10461A0085E88A95F1F778C0AA93E881F0E0E65632
:10462A00F74FE081A981AE0FEBDFE981E0939E08A5
:10463A00E881E0939F0822960895A2E00E94F82953
:10464A00ACE0DEDFA1E00E94F829E0E0E0939F08F9
:10465A00E0939E080895AA93A881AA3031F0E091C8
:10466A00A008A0919E08AE1760F0E0E0EA93A0913E
:10467A009F08AF5FA0939F08CFDFA881AA3009F4F3
:10468A0043C0E0919E08EF5FE0939E08D89AA88104
:10469A00B7DFD89839C0BA93AA931A930E949A2975
:1046AA0019F0A12FD8DFFACF188123960895AA937B
:1046BA00EAB3E06FEABBD29AD09AD19ADA98D8983C
:1046CA00D998E881E093A008E058E0939C08E88133
:1046DA00E054E0939D08A4E1B0E00E94032B0E94FD
:1046EA00FE290E94FE290E94FE29A0E275DF88ECBD
:1046FA0090E00197F1F7A8E283DFA4E081DFA5E863
:10470A007FDFA6E07DDF99DF21960895AA93E881ED
:10471A00E295EF70AE2FAA0FAA0FEA0FEE0FA9913A
:10472A00AF70EA0F0895AA93A991EE27AA5012F042
:10473A00E05FFCCFA65FEA0F089585E88A95F1F756
:10474A00E0E00895A9E1B0E00C94032BE0E0E093E7
:10475A004F08E09350080895A0914F08B09150086F
:10476A0099970895F901DE011696EE0FFF1F089535
:10477A00E1E00E94282A0E2E0895E1E00E94282AEC
:10478A00E0210895E0914108F0914208A881B98199
:10479A00AE0FBF1FEC910895A1E4B8E0ED91FD9131
:1047AA003196FE93EE930895E0E0EA93A0E00C942C
:1047BA001123A2E3B0E00C94032B0E94C720ADE0C2
:1047CA000E94C020AAE00E94C020A8ECB0E00C948D
:1047DA00032B0E94032B0C942223A4EFB1E00E9426
:1047EA00032BE9E7F7E0FA93EA930895E2E2F0E0AF
:1047FA0060E070E00E94A92A0895662777270E9440
:10480A00A92A0895EDE0F0E060E070E00E94A92A8C
:10481A00EAE0F0E060E070E00E94A92A089584E1ED
:10482A000E944A22689608958CE00E944A22609665
:10483A000895A8ECB0E00C94032BA0914108B09124
:10484A0042080895E0914308F09144080895F5DF7D
:10485A00EA17FB070895E3E1EA93A09141080C9453
:10486A001123A1E0B0E00C94032BE4EAF6E0FA93FA
:10487A00EA930895B0E00E94F906F0E00895E09303
:10488A008E08F0938F080895E0939008F0939108AA
:10489A000895E0939208F09393080895E09394089A
:1048AA00F09395080895A0916108B0E0EAE0F0E07D
:1048BA000E947D2A0895A0916108BB27EAE0F0E0F2
:1048CA000E94852A0895E0936A08F0936B08089578
:1048DA00A0916208B0E0EAE0F0E00E947D2A089523
:1048EA00A0916208BB27EAE0F0E00E94852A0895B9
:1048FA00A0916408B0E0EAE0F0E00E947D2A089501
:10490A00A0916408BB27EAE0F0E00E94852A089596
:10491A00E0937608F09377080895A0916508B0E0CF
:10492A00EAE0F0E00E947D2A0895A0916508BB277D
:10493A00EAE0F0E00E94852A0895E0937C08F0936B
:10494A007D080895EAE0F0E00E947D2A0895EAE0F1
:10495A00F0E00E94852A0895A0918E08B0918F08F0
:10496A000895E0E0F0E0FA93EA93A0918E080C949F
:10497A00EC06A0919008B09191080895E1E0F0E06A
:10498A00FA93EA93A09190080C94EC06A0919208ED
:10499A00B09193080895E2E0F0E0FA93EA93A091C7
:1049AA0092080C94EC06A0919408B0919508089589
:1049BA00E3E0F0E0FA93EA93A09194080C94EC06F1
:1049CA00EAEAF6E0FA93EA930895E0914B08F09147
:1049DA004C080E94232A0E94A92A0895ECE2F0E0DA
:1049EA0060E070E00E94A92A0895E0914D08F091D4
:1049FA004E080E94232A0E94A92A08950E94232A67
:104A0A000E94A92A089584E20E944A22A896AAEA44
:104A1A00B6E00C945023EA93A1E00E941123D0CF70
:104A2A00E0915108F0915208E9CFE0915308F091D2
:104A3A005408E4CFAAEAB6E00C945023EA93A2E021
:104A4A000C941123E2E2F7E0FA93EA930895A09115
:104A5A009808B09199080895FADF79CF80E10E9409
:104A6A004A226496E7CFEA93A3E00E941123A8CFD3
:104A7A00A0919608B09197080895FADF68CFEFEDF4
:104A8A00F0E060E070E00E94A92A0895AFE1B0E08A
:104A9A000E94F906AAE0EA9FF0010895EA0FFB1FB7
:104AAA00E0935508F0935608A1E2B0E00E94F90697
:104ABA00AAE0EA9FF0010895EA0FFB1FE093570866
:104ACA00F0935808A3E2B0E00E94F906AAE0EA9F30
:104ADA00F0010895EA0FFB1FE0935908F0935A0872
:104AEA00A0915508B0915608E7EEF3E00E944B2AD0
:104AFA000E2EA0915708B0915808E7EEF3E00E94F5
:104B0A004B2A0E2AA0915908B0915A08E7EEF3E011
:104B1A000E944B2AE0290895E6EDF1E0E09355085A
:104B2A00F0935608E0EEF1E0E0935708F093580846
:104B3A00E9E4F2E0E0935908F0935A08EFE1F0E073
:104B4A00FA93EA93A0915508B0915608FBCEAE2F7E
:104B5A000E94EC06E0E2F0E0FA93EA93A09155088D
:104B6A00B0915608F4CEAE2F0E94EC06E1E2F0E0D6
:104B7A00FA93EA93A0915708B0915808E3CEAE2F62
:104B8A000E94EC06E2E2F0E0FA93EA93A091570859
:104B9A00B0915808DCCEAE2F0E94EC06E3E2F0E0BA
:104BAA00FA93EA93A0915908B0915A08CBCEAE2F46
:104BBA000E94EC06E4E2F0E0FA93EA93A091590825
:104BCA00B0915A08C4CEA0918008B0918108089586
:104BDA00EAE00E945F2AA0918208B0918308EA0F56
:104BEA00FB1F0895E0914508F0914608E130A0E0E6
:104BFA00FA070895EA93A0E00E9411231ACEED91D4
:104C0A00FD913196FE93EE930895A0916808B091B4
:104C1A0069080895ED91FD913197FE93EE93F5CFD2
:104C2A00A0916A08B0916B080895A0916E08B0919E
:104C3A006F080895ED91FD913197FE93EE930895D3
:104C4A00A0917008B09171080895E1E0F0E0E09356
:104C5A004508F093460808950E942223E1E0EA936A
:104C6A00A1E00C9411230E942223E2E0EA93A1E03E
:104C7A000C941123A4EFB1E0ACCDA0914308B091FC
:104C8A0044080895EA93A1E00E941123D2CDA0918D
:104C9A007408B09175080895A0917608B0917708C4
:104CAA000895A0917A08B0917B080895A0917C0894
:104CBA00B0917D080895E0918E08F0918F080895CB
:104CCA00E0919008F09191080895EEEBF6E0FA93DE
:104CDA00EA930895FA93EA93E6E2F7E08ECDE0E0EC
:104CEA00F0E060E070E00E94A92A8CCDAEEBB6E05D
:104CFA000E946306A4E6B0E008950E94032BE5CF64
:104D0A00EA93A1E00C9411230E945023B3CF0E948E
:104D1A00222356CEECECF2E0FA93EA9380E00E946A
:104D2A004A22249687CEEA93A3E00E94112381CDDA
:104D3A00E0919208F09193080895E0919408F09117
:104D4A0095080895ABE0B0E00E94F9064E2E55246E
:104D5A00ACE0B0E00E94F9066E2E7724ADE0B0E038
:104D6A000E94F9068E2E9924AEE0B0E00E94F90660
:104D7A00AE2EBB24AFE0B0E00E94F906CE2EDD24B1
:104D8A00A0E178CDE0935007F0935107A1E172CDED
:104D9A00E0935207F0935307A2E16CCDE0935407D6
:104DAA00F0935507A3E166CDE0935607F0935707B2
:104DBA000895E0935807F09359070895E0935A0726
:104DCA00F0935B070895E0935C07F0935D070895FD
:104DDA00E0935E07F0935F070895E0936007F0930E
:104DEA0061070895E0936207F09363070895E093DB
:104DFA006407F09365070895E0936607F0936707E1
:104E0A000895E0936807F09369070895FA93EA937F
:104E1A0080E00E944A2224960DCEFA93EA93A0914A
:104E2A005508B09156080895E4E6F0E00E947D2AFC
:104E3A00E5CDA0915508B09156080895E4E6F0E052
:104E4A000E94852ADF017ECDF4DF81CDFA93EA93B1
:104E5A00A0915708B09158080895A0915708B091A9
:104E6A0058080895FADF73CDFA93EA93A091590886
:104E7A00B0915A080895A0915908B0915A08089516
:104E8A00FADF65CDE0915508F09156080895EC597E
:104E9A00FF4FE0935508F09356080895E09355089C
:104EAA00F09356080895EEDFE456F040F7CFE0E0BD
:104EBA00F0E00E94332A0895A1E2B0E00E94F906C8
:104ECA00AAE0EA9FF0010895AE2F0E94EC06BDCE3B
:104EDA00AEEBB6E00E94630673CDEDE7F3E096CF42
:104EEA0088E00E944A222C96AAEAB6E00895E09148
:104EFA005708F09158080895EC59FF4FE093570866
:104F0A00F09358080895E0935708F09358080895C5
:104F1A00EEDFE456F040F7CFA3E2B0E00E94F906D4
:104F2A00AAE0EA9FF0010895E0915908F0915A0821
:104F3A000895EC59FF4FE0935908F0935A080895E1
:104F4A00E0935908F0935A080895EEDFE456F040CA
:104F5A00F7CFFA93EA93EAE6F7E04FCC84E00E94AF
:104F6A004A22289667CDFA93EA93E0915807F0917E
:104F7A00590744CDE0915A07F0915B073FCDE09184
:104F8A005C07F0915D073ACDE0915E07F0915F070B
:104F9A0035CDE0916007F091610730CDE09162076D
:104FAA00F09163072BCDE0916407F091650726CD58
:104FBA00E0916607F091670721CDE0916807F091CB
:104FCA0069071CCDA0915807B09159070895A0917F
:104FDA005A07B0915B070895A0915C07B0915D07ED
:104FEA000895A0915E07B0915F070895A0916007A8
:104FFA00B09161070895A0916207B091630708957F
:10500A00A0916407B09165070895A0916607B091D1
:10501A0067070895A0916807B091690708950E94EB
:10502A00222313CEEAE3F7E0FA93EA93089584E29F
:10503A000E944A22A8960895E5E1F0E0FA93EA93DD
:10504A00A09158070E94EC06E6E1F0E0FA93EA9391
:10505A00A0915A070E94EC06E7E1F0E0FA93EA937E
:10506A00A0915C070E94EC06E8E1F0E0FA93EA936B
:10507A00A0915E070E94EC06E9E1F0E0FA93EA9358
:10508A00A09160070E94EC06EAE1F0E0FA93EA9345
:10509A00A09162070E94EC06EBE1F0E0FA93EA9332
:1050AA00A09164070E94EC06ECE1F0E0FA93EA931F
:1050BA00A09166070E94EC06EDE1F0E0FA93EA930C
:1050CA00A09168070C94EC060E948620A0E00E943A
:1050DA00282A0895E0E0F0E00E943F2A0895E9E0D6
:1050EA00F0E00E94392A0E2208950E945506A5E092
:1050FA00B0E00E94572AAAE0B0E00E94572AA0E036
:10510A00B0E0EA27FB270895A0914708B091480824
:10511A00E2E6F2E008950E94822ADF01E4E6F0E086
:10512A000E946A2A0895A0914908B0914A08E7E6C0
:10513A00F2E00895E0918608F0918708AAE0B0E0CD
:10514A000E94652A84CCE0918808F0918908AAE037
:10515A00B0E00E94652A7BCC0E94392AE6230E2EF3
:10516A000895E5E9F4E0B6CD72DCECCB0E94032B9E
:10517A00EDEDF7E0FA93EA930895ADEDB7E00E94FA
:10518A00B906A8EEB3E008950E2EA0E022FCA1E035
:10519A00E0E00E94282AE0210895689424F895CD39
:1051AA00E0918A08F0918B08AAE0B0E00E94652A93
:1051BA005FCCE0918C08F0918D08AAE0B0E00E94E3
:1051CA00652A56CCE2E4F5E085CD52DCBBCB0E2E47
:1051DA00A0E021FCA1E0E0E00E94282AE021089555
:1051EA00E0E00E94282A0E2E0895E0E00E94282A74
:1051FA00E021089584E00E944A22289677CD84E02F
:10520A000E944A2228960ECFEFE0F7E063CDE4E24F
:10521A00F7E060CDE6E2F7E0F0CAEA0FFB1FE093A1
:10522A005D08F0935E080895E0914B08F0914C08F0
:10523A00AAE0B0E00E94652A0895A0915308B091AF
:10524A005408AE0FBF1FE0915B08F0915C08089507
:10525A000E2EA0E031FCA1E0C8CFA0915B08B0916E
:10526A005C080895FADF73CB0E943F2A6E2FF00183
:10527A00A0915308B0915408AE0FBF1FE0915D088A
:10528A00F0915E0869CFE9DF5DCBA0915D08B0912E
:10529A005E080895FADF5BCB8CE10E944A22A09651
:1052AA00C1CE0F01A0915308B0915408AE0FBF1F91
:1052BA00E0915D08F0915E080E944B2A6E2FF00182
:1052CA00A0915308B0915408AE0FBF1FE0915F0838
:1052DA00F09160080E94452AE6231E2E0895D5DF24
:1052EA0031CBA0915F08B09160080895FADF2FCB07
:1052FA00A0915308B0915408AE0FBF1FE0915F0808
:10530A00F09160080E944B2A0895EBDF1BCBE091D5
:10531A005108F0915208AAE0B0E00E94652A089567
:10532A000E2EA0E033FCA1E060CFA981BA81ED91F5
:10533A00A983BA831E2FE03008952A93AD85BE85CE
:10534A00EF85F88909950895E889F9893497E88BF2
:10535A00F98B0895AD85BE85EF85F889099508957D
:10536A00A889B9891496ED91FD91EE83FF83AE81E8
:10537A00BF8108950E94B82AA0ED0C94EB2A0E94DE
:10538A00EB2A0C94C72A0E94B82AA1ED0E94EB2AA4
:10539A00A1E00C94D12AAE2F0E948B23A881B98157
:1053AA00EC930895A1E00E94D12AAE2F0C948B238E
:1053BA00AA81BB81EC93A0E00C94D12A0E94EB2A2B
:1053CA00A8810E949823AE2F08950E94EB2AA981F2
:1053DA000E949823AE2F08950E94EB2AAA810E9468
:1053EA009823AE2F08950E940523A3E0B0E00C9401
:1053FA00032BA0E30E94F12288EC90E00197F1F7D9
:10540A0008955A934A933A932A931A930A930895BA
:10541A005D814C813B812A81198108810895AC0FF5
:10542A00BD1F05900D928A95E1F708950024AF0DEE
:10543A00B01D0895F195E195F04008956F2F660F1C
:10544A00660B762F0895EA17E1E009F0EE27089532
:10545A00EA17FB07E1E009F0EE270895EA17FB07D0
:10546A00E1E009F4EE270895EA17FB07E1E00CF4FE
:10547A00EE270895AE17BF07E1E00CF4EE27089572
:10548A00AE17BF07E1E00CF0EE270895EA17FB0715
:10549A00E1E00CF0EE270895EA17FB07E1E008F0D7
:1054AA00EE270895FA9FF02DEB9FF00DEA9FE02D6D
:1054BA00F10D08956E2F6A9FF0016B9FF00D08950C
:1054CA002DD0F0DF0EF4B6DF08950024112490E108
:1054DA00AA0FBB1F001C111C0E1A1F0A18F40E0E6D
:1054EA001F1E01C0A1609A9599F7FD01D001089588
:1054FA0015D0EBDF0EF49EDF0895E7DFFD01089576
:10550A00E894B7FF04C0B195A195B0406894F7FD3F
:10551A0091DFDBDFFD010EF48DDF0895E894F7FFDC
:10552A0002C088DF6894B7FF06C0B195A195B04064
:10553A0000F8039400FA0895ED91FC9111970895EB
:10554A000590F491E02D08957A936A93FA93EA9379
:10555A000895E894EE2309F0689408959098919834
:10556A00889A899815C089988898EE270000819BA7
:10557A000895809B089504D0899A02D0889AE1E020
:10558A0065E007C0899A889A03D08898F9DF8998D4
:10559A006AE06A95F1F7089578E08898F1DF809BD0
:1055AA00FECFEEDF889481990894889AF1DFEE1F86
:1055BA007A9599F7AA2311F4899801C0899AE0DFAC
:1055CA008898E6DF889ADCDF8998DACF78E0AA0F34
:1055DA0010F4899801C0899ADBDF8898D1DF809B13
:1055EA00FECFCEDF889A7A9591F78998C9DF889895
:1055FA00CFDFE1E08199EE27889AC2CF109639F081
:10560A00A89580ED97E00197F1F71197C9F70895EA
:00000001FF
